:020000040000FA
:04000000803114280F
:100008007E1480314E01961E0A280B2812288C1E59
:100018000E280F2812288231222280317E100900F2
:1000280080311628823196228031FB00F901FA01CD
:1000380020308400003085001A30823181228031DE
:100048007E1040018231132A4001B101B3018D288D
:100058003503031D30283128412834082F06031D95
:10006800362837283D280230BE003E08B000AD01D2
:1000780041280130BE003E08AD0703302D02031CA5
:1000880046284728A3280430BE003E08B000A3280D
:10009800B101B10A3603031D522853285628B0016E
:1000A800B00AA3283703031D5A285B28A328033066
:1000B800BE003E08B000A328B301B30AB101B10ADB
:1000C8003503031D682869286D283408BE003E08DA
:1000D800AE003803031D71287228A3282E082F06A6
:1000E800031977287828A3282E08BE003E08AF00F9
:1000F8005328C830F5000030F600C830F70000304B
:10010800F8008031EA2080314001BE003E08B2008C
:10011800A3283008BE00BF013F08003A03199528FC
:10012800A3283E08013A03192C28033A03194C283E
:10013800013A03196028073A03197D28A328080003
:10014800F50140010E08F2007208FA002C097A0540
:10015800F2007208F4007408F2000530F236890BD8
:10016800B22872080139F3007308B5007408F20068
:100178000730F236890BBD2872080139F30073087D
:10018800B7007A092C05F2007208F5007508F2002C
:100198000530F236890BCD2872080139F30073084F
:1001A800B6007508F2000730F236890BD8287208B5
:1001B8000139F3007308B8007A08F2007208AC003D
:1001C8007A080F39F2007208B40008004001BC0137
:1001D800BD018131C121803173087602031DF628E3
:1001E80072087502031CF928FA28FF28013040011B
:1001F800BC000030BD008131C12180317608730216
:10020800031D082975087202031C0B290C290F29E4
:100218004001BC01BD01770875074001BA007808A4
:10022800763DBB008131C121803140013B0873021A
:10023800031D20293A087202031C2329242927298F
:1002480082316322803140013C0808007B08031991
:100258002E292F295829FB017908F000F10170088F
:100268004001AA077108AB3D0130AA070030AB3D39
:100278007908F000F1017008A8077108A93D01305C
:10028800A8070030A93D7908F000F1017008A60719
:100298007108A73D0130A6070030A73DF9010130DC
:1002A800F0007008FB005C290130F0007008F907C5
:1002B800080082313E2281318231312281318131FF
:1002C800C12181318231002281318131ED21813199
:1002D80082316322813182315722813182314B222E
:1002E80081310030F500F6000030F700F800803169
:1002F800EA2081314001B001B00AAF010800400195
:10030800980199019A019201FF309300FF309400FF
:100318007E01CE01FF30C300FF30B800E501C40103
:10032800B901CF01BA01C501D001FF30BB00FF30D0
:10033800C600FF30D100FF30BC00FF30C700FF30DF
:10034800D2000830E800080040013108F2007208C5
:10035800B90032350239F2007208B9043308F200E4
:100368000630F235FF3E031DB52972358039F3009A
:100378007308B90439088C0008008231872281315A
:100388007B080319C829C929D329FB0140012B0877
:10039800A5002A08A4000130F4007408FB004001FD
:1003A8002508F3002408F200080040304B019F00A4
:1003B800F9309D009C014E018C1296169730F20080
:1003C8000230F30082318D22813180304B019E0052
:1003D80008008231872281317B080319F429F52925
:1003E800FF29FB0140012708A1002608A0000130D1
:1003F800F2007208FB0008008231872282317B08F4
:100408000319072A082A122AFB0140012908A30018
:100418002808A2000130F2007208FB0008008131B0
:100428005D2182318031A4208231803128208231BF
:100438008131A8218231162A803114284E018C126C
:1004480040014008410403192A2A2B2A302A41086E
:100458008A0040080A00823108008B170B172A30DF
:10046800F2000130F30082318D22823182319322F1
:1004780082310800823179228231813183218231AF
:1004880082316F2282318131D92182310800823153
:1004980087228231FB014001A601A7010130F20049
:1004A8007208FB000800823187228231FB0140017B
:1004B800A801A9010130F2007208FB00080082318E
:1004C80087228231FB014001AA01AB010130F20011
:1004D8007208FB000800623051018D008F01910104
:1004E800023093009001920108004F019601970194
:1004F800980199019A019B0108006400800101316B
:10050800890B822A00347908031D8B2A8C2A872AB2
:10051800080073084001C1007208C00008004B01C0
:080528009E17080001340800D1
:020000040001F9
:0A000E00EC3FFF3F9F3FFF3FFF3F25
:00000001FF
